{
  "contractName": "UseForType",
  "abi": [
    {
      "constant": true,
      "inputs": [
        {
          "name": "_a",
          "type": "uint256"
        },
        {
          "name": "_b",
          "type": "uint256"
        }
      ],
      "name": "add",
      "outputs": [
        {
          "name": "",
          "type": "uint256"
        }
      ],
      "payable": false,
      "stateMutability": "pure",
      "type": "function"
    }
  ],
  "bytecode": "0x608060405234801561001057600080fd5b50610177806100206000396000f300608060405260043610610041576000357c0100000000000000000000000000000000000000000000000000000000900463ffffffff168063771602f714610046575b600080fd5b34801561005257600080fd5b5061007b6004803603810190808035906020019092919080359060200190929190505050610091565b6040518082815260200191505060405180910390f35b60008273__MathOperationsLib_____________________63771602f79091846040518363ffffffff167c0100000000000000000000000000000000000000000000000000000000028152600401808381526020018281526020019250505060206040518083038186803b15801561010857600080fd5b505af415801561011c573d6000803e3d6000fd5b505050506040513d602081101561013257600080fd5b81019080805190602001909291905050509050929150505600a165627a7a723058206ee6c406f18f976745ccd198228e094c22a574dd1d3562411d9a99013a83a1e70029",
  "source": "pragma solidity 0.4.23;\n\nimport \"./MathOperationsLib.sol\";\n\n\ncontract UseForType {\n    using MathOperationsLib for uint;\n\n    function add(uint _a, uint _b) public pure returns (uint) {\n        // implement addition calling add directly on uint variable\n        return _a.add(_b);\n    }\n}\n",
  "sourcePath": "/Users/alex/week4/solidity-exercises/exercises/first-library/contracts/UseForType.sol",
  "compiler": {
    "name": "solc",
    "version": "0.4.23+commit.124ca40d.Emscripten.clang"
  },
  "schemaVersion": "2.0.0",
  "updatedAt": "2018-05-23T16:55:35.773Z"
}